:020000040800F2
:1000000000110020E1020008F1410008F138000869
:10001000E941000889080008814800080000000044
:100020000000000000000000000000007145000812
:10003000E10800080000000029420008A945000866
:10004000FB020008FB020008FB020008FB0200089C
:10005000FB020008FB020008FB020008FB0200088C
:10006000FB020008FB020008FB020008FB0200087C
:10007000FB020008FB020008FB020008FB0200086C
:10008000FB020008FB020008FB020008F908000858
:10009000410A0008FB020008FB020008FB020008FE
:1000A000FB020008FB020008FB020008FB0200083C
:1000B000FB020008FB020008FB020008FB0200082C
:1000C000FB020008FB020008FB020008FB0200081C
:1000D000FB020008FB020008FB020008FB0200080C
:1000E000FB020008FB02000800000000FB02000801
:1000F000FB020008FB020008FB020008FB020008EC
:10010000FB020008FB020008FB020008FB020008DB
:10011000FB020008FB02000809470008FB02000878
:10012000FB020008FB020008FB020008FB020008BB
:10013000FB020008FB020008FB020008FB020008AB
:1001400000000000000000000000000000000000AF
:10015000FB020008FB020008FB020008FB0200088B
:10016000FB020008FB020008FB020008FB0200087B
:10017000FB020008FB020008FB0200080000000070
:10018000FB020008FB020008FB020008FB0200085B
:10019000FB020008FB020008FB020008FB0200084B
:1001A000FB020008FB020008FB0200080000000040
:1001B000FB020008FB020008FB020008FB0200082B
:1001C000FB020008FB020008000000000000000025
:1001D0000000000000000000FB020008000000001A
:1001E000000000000000000000000000000000000F
:1001F0000000000000000000FB020008FB020008F5
:10020000FB020008FB02000800000000FB020008DF
:10021000FB020008FB020008FB020008FB020008CA
:10022000FB02000800000000FB02000800000000C4
:10023000FB020008FB02000800000000FB020008AF
:10024000FB020008FB020008FB020008FB0200089A
:10025000FB020008FB020008FB020008FB0200088A
:10026000FB020008FB020008FB020008FB0200087A
:10027000FB020008FB020008FB020008000000006F
:10028000FB020008FB020008FB020008FB0200085A
:1002900000000000FB020008FB0200080000000054
:1002A00000000000FB020008FB020008FB0200083F
:1002B000FB020008FB020008FB020008FB0200082A
:1002C000FB020008FB020008FB020008DFF80CD06C
:1002D00000F038FA00480047D94900080011002012
:1002E0000648804706480047FEE7FEE7FEE7FEE7D0
:1002F000FEE7FEE7FEE7FEE7FEE7FEE759460008F9
:10030000CD020008D2B201E000F8012B491EFBD259
:1003100070470022F6E710B513460A460446194610
:10032000FFF7F0FF204610BD30B50B460146002018
:100330002022012409E021FA02F59D4205D303FAA7
:1003400002F5491B04FA02F52844151EA2F1010228
:10035000F1DC30BD2DE9F05F0546002092469B465A
:1003600088460646814640241BE0284641464746CB
:10037000224600F008FA53465A46C01A914110D35B
:1003800011461846224600F0EFF92D1A67EB0108D6
:100390004F4622460120002100F0E6F917EB000944
:1003A0004E41201EA4F10104DFDC484631462A46B6
:1003B0004346BDE8F09F420005D0C0F3C752524209
:1003C000914201DC0020704700EBC15070472DE9DD
:1003D000FE4F804681EA0300C00F0C46009021F0DA
:1003E000004123F00045B8EB0200A94105D2404688
:1003F000214690461C460B46024623F0004010431F
:1004000047D0270DC7F30A00C3F30A510290401AE0
:10041000019040286BDAC3F3130040F4801B00986E
:10042000924620B10023D2EB030A63EB0B0B019839
:100430005946C0F14002504600F096F906460D4676
:1004400050465946019A00F0AEF910EB08006141A0
:10045000002487EA115284EAE7731A4340D0009AD5
:1004600062B3019A012A4FEA075215DC001B61EBC7
:1004700002014FF0004202EA0752CDE90042001C9F
:1004800041F5801132462B4600F0AEF903B0BDE8CD
:10049000F08F40462146F9E7001B61EB0201001C8A
:1004A00041F5801300185B412018A2F5001747EBB7
:1004B000030140EAD570B6196D4111E06D084FEAAD
:1004C000360645EAC0754FEA0752001B61EB020190
:1004D000001C41F5801149084FEA300000195141D4
:1004E00032462B4603B0BDE8F04F00F06EB90098DD
:1004F000012240000023D0EB020263EBE07300987E
:1005000021464FEAE074B8EB000061EB0401E9E733
:1005100083F000435BE781F0004158E72DE9FE4F8F
:1005200081EA030404F0004421F0004100944FF0FC
:10053000000B23F0004350EA01045ED052EA0304AA
:100540005BD0C3F30A54C1F30A552C44A4F2F3342C
:100550000194A0FB0254C1F3130141F48011C3F3D1
:10056000130343F4801301FB024400FB034E840A8F
:10057000970A44EA815447EA8357A4FB0768029527
:100580008D0A05FB07854FEA932C04FB0C542705C5
:10059000029D4FEA065847EA1637B5EB08056EEBA1
:1005A000070C870E920E47EA811742EA8312A7FBD7
:1005B0000201B6EB0B0164EB00042B0D43EA0C3394
:1005C0005E1844EB1C50DA465146E7FB0201C5F3C6
:1005D00013044FEA0B3343EA14534FEA0432019CED
:1005E00043EA0603A4F10C040294009CCDE900B494
:1005F00000F0FAF803B0BDE8F08F00200146F9E7FB
:100600002DE9F04D81EA030404F0004B21F0004590
:1006100014464FF0000A23F0004150EA050220D0B2
:1006200054EA01021DD0C5F30A570246C5F313036D
:10063000C1F31300C1F30A5640F4801543F480134C
:10064000A7EB0608101BD64608F2FD3873EB050031
:1006500002D308F1010801E092185B41B8F1000FE4
:1006600003DA00200146BDE8F08D00204FF4801130
:10067000064684460EE0171B73EB050705D3121BD5
:1006800063EB050306434CEA010C49084FEA3000CE
:1006900092185B4150EA0107EDD152EA030012D0F3
:1006A00082EA040083EA0501084305D0101BAB4130
:1006B00006D20122002306E000224FF0004302E0B0
:1006C0006FF0010253101AEB06004CEB085110EBCF
:1006D0000A0041EB0B01BDE8F04D00F076B8C1F324
:1006E0000A52C1F3130140F2FF3341F480119A42E0
:1006F00002DA00200146704740F233439A42A2F2E8
:10070000334202DC524200F03EB800F02DB8000047
:1007100030B5041E71F1000404DB4FF00044404288
:1007200064EB0101141E73F1000405DB1C464FF05D
:100730000043524263EB0403994208BF904230BD2C
:1007400000207047064C074D06E0E06840F00103CA
:1007500094E8070098471034AC42F6D3FFF7BAFD8F
:100760003895000858950008202A04DB203A00FA42
:1007700002F1002070479140C2F1200320FA03F3F8
:10078000194390407047202A04DB203A21FA02F0F6
:100790000021704721FA02F3D040C2F120029140BB
:1007A000084319467047202A06DBCB17203A41FA46
:1007B00002F043EAE07306E041FA02F3D040C2F1EE
:1007C0002002914008431946704710B5141E73F17A
:1007D000000408DA401C41F1000192185B411A4301
:1007E00001D120F0010010BD2DE9F04D92469B464D
:1007F00011B1B1FA81F202E0B0FA80F220329046F3
:10080000FFF7B2FF04460F4640EA0A0041EA0B0137
:1008100053465A46084313D0114653EA010019D0F3
:10082000C8F140025046FFF7AEFF05460E4650465F
:1008300059464246FFF798FF084305D0012004E0DF
:1008400020463946BDE8F08D0020054346EAE076B3
:100850002C4337430A986305E40AA0EB0800002202
:10086000FD0A44EA47540A3002D500200146E9E770
:10087000010510196941DDE9084500196941BDE824
:10088000F04DA2E700000000FEE7000000000000BD
:1008900070B58AB040F294040191C2F200040023C2
:1008A000082104914FF00041E66ACDE90513616A21
:1008B0001546002207937143064620460893CDE96A
:1008C0000233099300F06CFB204600F07DFB01A988
:1008D00030462A4600F0CCFA0AB070BD0000000095
:1008E0007047000000000000EFF3108072B600BFF8
:1008F000FEE700000000000080B540F29400C2F264
:10090000000000F04DFC80BD80B540F29400012154
:10091000C2F20000002200F06FFA30B149F2255017
:100920009521C0F6000004F0A7F940F294000421DC
:10093000C2F20000002200F05FFA30B149F2255007
:100940009A21C0F6000004F097F940F294000221C9
:10095000C2F20000002200F04FFA002808BF80BD5C
:1009600049F225509F21C0F6000004F085F980BDB2
:1009700010B582B040F25C110024C2F200010220E6
:1009800088600120C1E9030440F294004C61C2F286
:100990000000C1E9004400F0A3FA30B149F225504B
:1009A0004621C0F6000004F067F940F294000221ED
:1009B000C2F2000002220023009400F0D5FA30B108
:1009C00049F225505121C0F6000004F055F902B05B
:1009D00010BD00000000000080B50246C078082865
:1009E00021D840F27C110023C2F20001C86032F825
:1009F00004CB0B62C1E90433C1E9063312F8020CDF
:100A0000C1F800C04B600138B0FA80F040094007DF
:100A1000886040F29400C2F2000000F029FAB0FAB7
:100A200080F0400980BD002080BD00000000000073
:100A300080B540F29400C2F2000000F049FF80BD92
:100A400080B540F2A010C2F2000000F0A9FB80BD0A
:100A500080B540F2A0101021C2F20000002200F088
:100A6000CBF930B149F22550B221C0F6000004F0B4
:100A700003F940F2A0102021C2F20000002200F091
:100A8000BBF930B149F22550B621C0F6000004F0A0
:100A9000F3F840F2A0104021C2F20000002200F062
:100AA000ABF9002808BF80BD49F22550BA21C0F635
:100AB000000004F0E1F880BD10B582B040F268217A
:100AC0000220C2F200010024C1E9020040F2A0109D
:100AD000C2F20000C1E90044C1E9044400F000FA98
:100AE00030B149F225507621C0F6000004F0C4F878
:100AF00040F2A0100221C2F2000002220023009462
:100B000000F032FA30B149F225508021C0F60000E1
:100B100004F0B2F802B010BD80B50246C0780828D3
:100B200021D840F288210023C2F20001C86032F8C7
:100B300004CB0B62C1E90433C1E9063312F8020C9D
:100B4000C1F800C04B600138B0FA80F0400940079E
:100B5000886040F2A010C2F2000000F089F9B0FAFB
:100B600080F0400980BD002080BD00000000000032
:100B700080B540F2A010C2F2000000F0A9FE80BDD6
:100B80002DE9F04F82B00168C76BD0E90DA2D1F812
:100B900084304FF6FC74A34343EA8A03C1F88430DF
:100BA000D1F88430019223F47F0343EA0243C1F871
:100BB000843002EB0A03D1F888406FF38F0444EAD3
:100BC0008304C1F88840D1F88840009724F4FE04DB
:100BD00044EA0744C1F8884003EB4704D1F8A03049
:100BE0006FF38F0343EA8403C1F8A030D1F8A0501B
:100BF000D0F840B025F4FE0545EA0B45C1F8A050F9
:100C0000D0F84480D1F8B0506FF38F0508FB0B4447
:100C100008FB0BF845EA8405C1F8B050D1F8B06084
:100C2000856C26F4FE0646EA0546C1F8B060D0F8A9
:100C30004C9009FB0547D1F8AC406FF38F0409FBDA
:100C400005F944EA8704C1F8AC40D0E9144606FB34
:100C50000472D1F8F0706FF38F0747EA8207C1F88A
:100C6000F070D1F8F030876D23F47C1343EA07432A
:100C7000C1F8F03002EB4702D1F8C0306FF38F03B8
:100C800043EA8202C1F8C020D1F8C020C36D22F42B
:100C90007C1242EA0342C1F8C0204AF60042D1F871
:100CA000C0C0D0F860E0C4F20002019D02EB8A02ED
:100CB0002CF07C5C06FB04FA009C4CEA0E6C02EB08
:100CC0008505C1F8C0C005EBC406846E06EB88013B
:100CD000056701EB890C63430CEB8A05C266C0E92A
:100CE0001E1C0EFB04F105EBC70707EB8303C0F8DE
:100CF00084704DF2FC37466703EB8101C4F20007B4
:100D0000B942C0F88050C0F88830C0F890100AD9B5
:100D1000D0F89C1041F02001C0F89C10032180F80D
:100D2000981001210CE0D0F890108A4207D20021DF
:100D300042F8041BD0F890309A42F9D300E0002129
:100D4000084602B0BDE8F08FF0B5D1F804C0D1F884
:100D500010E0BCF1000FD1F808C006D00C684EEAD4
:100D60000C05254345F0804C04E00D684CEA0E0468
:100D700044EA854C856ED0F88470D1E907466B4310
:100D80008D6944EA0660D1F814E0CC68054307EBAE
:100D9000830045EA0E0647F823C046EA0443436051
:100DA000CB68002B08BFF0BD49F2E84C0830013297
:100DB0000023C0F6000C00BFD71857F8017CC750BD
:100DC000CF6804331CF80770BB42F5D3F0BD0000B8
:100DD000B0B5044600F098FE40F288010546C2F224
:100DE0000001621C097818BF0C4400BF00F08CFEA3
:100DF000401BA042FAD3B0BD90F89830013B012BC4
:100E00000BD80068836D0B420CD0836D0B408B4276
:100E10000CD1C36D43F0020309E000F19C010120F5
:100E2000022221E0C36D43F0010300E00323C36508
:100E30008B0504D5D0F8E0301343C0F8E0304B0503
:100E400004D5D0F8E4301A43C0F8E4204FF6FF721E
:100E5000436DC3F6CF720A401A4342658A0F4AF6C1
:100E600014010020C4F200010B681A430A607047A5
:100E7000B0B5044690F8980002281AD12068D0F83E
:100E8000C03013F07C5F19D0D0F8C4309B021AD464
:100E9000D0F8C400C0F3044520462B46FFF754FFAA
:100EA00020680121A940C0F8D0100020C4F8941097
:100EB000B0BDD4F89C0040F0080008E0D4F89C00D5
:100EC00040F0200003E0D4F89C0040F40070C4F827
:100ED0009C000120B0BD0000704700000000000031
:100EE00080B590F89820013A012A0AD80A68002AA9
:100EF000CA680ED00B69072A43EA427E16D18B6975
:100F000019E0D0F89C1041F00201C0F89C100120BB
:100F100080BD072A18D10A69D1F81CC012048B6958
:100F200042EA0C221A4342F0605217E0D1F808C09E
:100F30004B6943EA8C73006F496800EBC10240F8CB
:100F400031E00020536080BD8B68D1F810C09B0752
:100F500043EAC2624B6942EA0C421A434968C06ED6
:100F600040F82120002080BD90F898C0BCF1010F0E
:100F70000DD19200006842EA0111DDF800C041EA9B
:100F8000430141EA0C01C0F8801000207047D0F8FE
:100F90009C1041F00401C0F89C1001207047000033
:100FA00090F89830012B05D1006842EA0121816454
:100FB00000207047D0F89C1041F00401C0F89C104C
:100FC000012070470000000090F89810012906D118
:100FD00000684FF4000200F10C01002003E000F172
:100FE0009C01012004220B681A430A60704700002C
:100FF0007047000000000000704700000000000083
:1010000070B590F89850022D11D1402914D1046880
:10101000D4F8A05015F4FE0F2BD0D4F8A4506D06D0
:101020002CD0D4F8A450ED0130D4002531E0D0F814
:101030009C1041F0080125E041290FD10468D4F843
:10104000B05015F4FE0F14D0D4F8B4506D0615D07E
:10105000D4F8B450ED0126D4002527E0056D8D426B
:1010600007D900F17C04D0F854E04FF0000C0D4695
:1010700026E0D0F89C1041F0200103E0D0F89C104D
:1010800041F48071C0F89C10012070BDD4F8A050CC
:10109000ED0FD4F8A440C4F3052404EB050E00F1D1
:1010A0007404456C0BE0D4F8B050ED0FD4F8B440A4
:1010B000C4F3052404EB050E00F17804C56CF44676
:1010C00005FB0EF6246854F8265015F0804555604F
:1010D00054F826E02EF0604508BFCEF38A4504EBB5
:1010E000860E156054F8265005F00055956054F8AA
:1010F000264004F000441461BEF80440D461BEF8F8
:10110000064014F00F04D460DEF8044004F48014A8
:101110005461DEF8044004F4001494619EF8074022
:1011200004F07F041462DEF804404FEAD474546281
:101130000ED00EF1080549F2E84E0024C0F6000E6C
:101140002E5D1E550134D6681EF80660B442F7D3F2
:10115000402904D10068C0F8A8C0002070BD412912
:1011600004D10068C0F8B8C0002070BD1F2907D89E
:101170000068012202FA01F1C0F89810002070BD49
:10118000006801F01F01012202FA01F1C0F89C1071
:10119000002070BD0000000070470000000000004B
:1011A0002DE9F04F87B004464AF61000C4F2000063
:1011B00001684AF61400C4F200000268206802EADE
:1011C000010A056DD0F85490076DD0F85480036D76
:1011D0000293436D0193036D0693436D0593036D75
:1011E0000493436D0393436D066D06EA030B5FEAB8
:1011F000CB530BD54FF4807101654AF610010020E6
:10120000C4F2000108602046FFF7C6FF05EA0906A0
:101210004AF610095FEA4B50C4F200094FEA8A759A
:101220000ED52068D0F8DC10D0F8E42011404FF43F
:10123000806202650020C9F80000204600F07CFBB7
:1012400008EA070806F4704655B1206800210165D8
:101250000AF00300C9F8000020462946FFF73CFECB
:10126000DDE9011000EA010708F00F0546B120682A
:10127000314606650020C9F80000204600F064FBF6
:1012800007F0F00645B12068294605650020C9F839
:101290000000204600F0ACFA46B1206831460665F1
:1012A0000020C9F80000204600F0DAFA5FEA0B508F
:1012B00000F1BF805FEA8B5000F1C9805FEA0B301C
:1012C00000F1D8805FEACB3009D520684FF4803137
:1012D00001650020C9F80000204600F029FB5FEA04
:1012E0004B30DDE9031000EA010509D520684FF411
:1012F000802101650020C9F80000204600F014FBA1
:101300005FEA8B30DDE9051000EA010005F060714D
:101310000CD522684FF4003313650022C9F8002071
:10132000D4F89C2042F08002C4F89C2000F0715553
:1013300039B1206801650020C9F800002046FFF798
:101340005BFE4DB1206805650020C9F80000D4F8A7
:101350009C002843C4F89C002068A9F501618842DC
:101360005ED16068816889075AD0016A426A036A5F
:10137000476A114003EA070202F03005D0F82080E6
:10138000D0F82490026A049211F00F01D0F824B032
:10139000026A0692426A0592466AD0F820A003D0FB
:1013A0000162204600F0B4FA08EA09072DB160682E
:1013B00029460562204600F0B3FA06EA0A0007F45F
:1013C000C0754006049800EA0B060AD56068402301
:1013D000C16BC26B090C02F03F020362204600F0B1
:1013E0009BFADDE9051000EA010706F4FC462DB181
:1013F000606829460562204600F086FA07F4F0206E
:1014000036B161680E62D4F89C103143C4F89C1068
:1014100030B161680862D4F89C100843C4F89C009D
:10142000D4F89C0010B12046FFF7E2FD07B0BDE8FC
:10143000F08F20684FF4006101650020C9F80000BA
:10144000204600F085FA5FEA8B507FF537AF2068C1
:10145000D0F8D810D0F8E02011404FF400720265A7
:101460000020C9F80000204600F06AFA5FEA0B305D
:101470007FF528AF20684FF4002101650020C9F8EE
:101480000000204600F0B0F95FEACB303FF51DAF19
:1014900025E70000000000002DE9F04130B34AF2DA
:1014A00000080446C4F200080068404502D108F56F
:1014B0008070606094F8980028B9002084F8990042
:1014C000204600F0F5F82068816921F01001816163
:1014D00000F01AFB054600BF20688169090708D59E
:1014E00000F012FB401B0B28F6D312E00120BDE8F0
:1014F000F081816941F00101816100F005FB054641
:1015000020688169C90710D100F0FEFA401B0B2842
:10151000F6D3D4F89C0040F00100C4F89C000320EE
:1015200084F898000120BDE8F081816941F0020152
:101530008161217C826922F04002012918BF40327A
:101540008261617C826922F48042012908BF02F530
:1015500080428261A17C826922F48052012918BFF5
:1015600002F580528261816921F44073D4E902124C
:101570000B438361836923F0A4038361036923F030
:1015800010030361AAB1022A0FD0012A03D1826994
:1015900042F004020CE08369032A43F08003836174
:1015A000036943F01002026103D1826942F0200214
:1015B0008261D4E90552E369561E6FF0FF02276A83
:1015C00002EB0323013F43EA4663B1F5407F47EA5C
:1015D000030740F20003CFF6FF7303EB054647EA2B
:1015E0000601C16110D1D4E90B65D4E90917013FA7
:1015F00002EB06226FF00F063A4306EB05173A435B
:1016000003EB01411143C160216E29B1626ED0F834
:10161000C0301A43C0F8C020E26DCA4246F29801B9
:10162000C0F6000109D0D0F8C820A36E22F007024E
:1016300051F823301A43C0F8C820226C4AB1D0F8C0
:10164000BC20636C22F0070251F823301A43C0F823
:10165000BC20A26C52B1D0F8BC20E36C22F0700226
:1016600051F8233042EA0312C0F8BC20226D52B177
:10167000D0F8BC20636D22F4E06251F8231042EAF6
:101680000121C0F8BC10404504D16068816821F098
:10169000030181600020C4F89400C4F89C0001207C
:1016A00084F898002046FFF76BFABDE8F08100004F
:1016B000B0B5B6B0044602A8B8210025CDE934552E
:1016C000CDE932553195FEF724FE4AF200412068FB
:1016D000C4F2000188423DD04AF20001C4F2000188
:1016E00088427DD1002003904FF4004002904FF0DB
:1016F00080501D9002A800F0CBFA08B1FFF7F4F873
:1017000040F2900144F2E040C2F20001C5F602004E
:101710000A68002A02F101020A6008D1C16841F496
:101720008071C160C16801F4807101910199016803
:10173000132441F008010160006800F008000190E6
:1017400001980320319040F20040C5F6020000F5F8
:10175000006033E04FF4004002904FF080501D9045
:1017600002A8039500F094FA08B1FFF7BDF840F223
:10177000900144F2E040C2F20001C5F602000A689E
:10178000002A02F101020A6008D1C16841F48071A7
:10179000C160C16801F4807101910199016814244C
:1017A00041F002010160006800F002000190019820
:1017B0006020319040F20040C5F6020002213291D3
:1017C0000021CDE933110921359131A900F0C4F888
:1017D00000210022204600F023FA204600F01CFAE7
:1017E00036B0B0BD000000007047000000000000EF
:1017F000F0B583B040F210040429C2F200044FF0A7
:101800000002CDE90022E16026D80546012088408B
:1018100010F0160F20D040F234166F46C2F20006C8
:101820004021284632463B46FFF7EAFBDDE900014E
:10183000C4E901013068B1682080F08901F160419C
:10184000B1FA81F1E0704809A070A26A28462146E9
:101850009047607D0028E3D103B0F0BD0000000098
:10186000F0B583B040F23C040546C2F20004002209
:10187000CDE900221029E16018BF402921D140F2B2
:1018800040266F46C2F200064121284632463B46BA
:10189000FFF7B6FBDDE90001C4E901013068B1687A
:1018A0002080F08901F16041B1FA81F1E0704809CE
:1018B000A070A26A284621469047607D0028E3D1A7
:1018C00001E02029DBD003B0F0BD000000000000E3
:1018D00090F8981001290CD1022180F89810016825
:1018E0008A6922F001028A610021C0F89C10084632
:1018F0007047D0F89C1041F00401C0F89C10012002
:101900007047000000000000704700000000000069
:101910007047000000000000704700000000000059
:101920007047000000000000704700000000000049
:101930007047000000000000704700000000000039
:101940007047000000000000704700000000000029
:1019500070470000000000002DE9F04F83B00C68D4
:10196000002C00F0C68000F1264242F2004702F14E
:10197000FF72C5F602074FEAB22201920A22B8426C
:1019800008BF0922002500274FF0010A009209E054
:101990000C68043734FA0AF20AF1010A05F102056B
:1019A00000F0A780AAF10109012202FA09FE14EA57
:1019B0000E08EDD0D1F804B00BF00304A4F1010C33
:1019C000BCF1010F11D803228668AA40CB6826EA31
:1019D0000202AB401A438260CBF30013426822EA52
:1019E0000E0203FA09F31A434260032C1ED00323AC
:1019F000C268AB40022C22EA03028B6803FA05F3AB
:101A000042EA0302C26011D16FF0030207F01C0624
:101A100002EA59020F23024403FA06F4D2F820C066
:101A20000B692CEA0404B3402343136203230268C6
:101A3000AB404E689A4306F00303AB4016F4403FB8
:101A400042EA03020260A3D044F2F44340F2084E9B
:101A5000C5F60203C5F6000E1A6842F002021A60CB
:101A60001A6807F00C0302F002020292029A29F0AF
:101A70000302019C009E082C38BF26460F2452F812
:101A80000EC09C402CEA040406FA03F34FF0B04C5D
:101A9000234342F80E30DCF800204B6842EA080687
:101AA000DC0258BF22EA08069C02CCF8006040F233
:101AB000040CC5F6000CDCF8002042EA080658BF0A
:101AC00022EA08069C03CCF80060DCF8802042EA99
:101AD000080658BF22EA0806DB03CCF88060DCF871
:101AE0007C2042EA080658BF22EA0806CCF87C604F
:101AF0004EE703B0BDE8F08F002A08BF09048161FA
:101B0000704700000000000040F6FC40C2F20000F8
:101B1000006870470000000040F2880040F6FC4179
:101B2000C2F20000C2F2000100780A6810440860A6
:101B3000704700000000000080B5032000F080F82E
:101B400000F096FE44F2184146F2E403C5F60201A5
:101B5000C0F600030A68096801F00F01C2F303220E
:101B6000595C9A5C01F01F0102F01F02D04040F264
:101B70000C02C2F2000220FA01F1116040F20801E9
:101B8000C2F2000108600F2000F00AF800281CBF14
:101B9000012080BD00F030F8002080BD0000000072
:101BA000B0B540F28801C2F20001097801B30446E1
:101BB00040F20800C2F200004FF47A72B2FBF1F179
:101BC0000068B0FBF1F001F03FFC0F2C4FF0010575
:101BD0000CD858B94FF0FF3000222146002500F004
:101BE0001FF840F28C00C2F2000004602846B0BD2D
:101BF0000120B0BD0000000081B044F2F440C5F601
:101C00000200016841F002010160006800F002007A
:101C10000090009801B0704780B502F035FE80BD9D
:101C200070B514460D46064602F03EFE2946224691
:101C300002F0E2FA0146304602F03EFE70BD0000BE
:101C400080B502F04DFE80BDB0B544F60C05C5F67A
:101C5000020529684907296805D401F00701081A17
:101C600018BF0120B0BD21F0070108432860FFF72D
:101C70004BFF044655F8080C800407D4FFF744FFD7
:101C8000001BB0F57A7FF5D90120B0BD0020B0BDB2
:101C90002DE9F04381B00446C07844F22C49000796
:101CA000C5F6020901D400252EE0606E4FEA3050DF
:101CB00003280DD80025DFE800F0020E1714D9F82C
:101CC0000000002540F40030C9F8000055B913E0C9
:101CD00001253DB910E004F10800022102F0A8FA44
:101CE00005464DB1A84611E004F12800022102F09A
:101CF0002FFB0546002DF5D1D9F82400616E20F4A4
:101D000040100843C9F824004FF000086078C0076D
:101D100030D0A06D042807D8DFE800F00A131C03B8
:101D20000300FDB1A84625E00125002DFAD119E0F8
:101D3000D9F8000040F40030C9F80000002DF1D1BE
:101D400010E004F10800002102F072FA0546002DAF
:101D5000E8D107E004F12800002102F0F9FA054675
:101D6000002DDFD1D9F82400A16D20F00700084331
:101D7000C9F824006078400734D5D4F8A4004FEAAD
:101D80007050052807D8DFE800F00A131C0303038E
:101D9000FDB1A84626E00125002DFAD119E0D9F8B9
:101DA000000040F40030C9F80000002DF1D110E02F
:101DB00004F10800002102F03BFA0546002DE8D1AD
:101DC00007E004F12800002102F0C2FA0546002DC8
:101DD000DFD1D9F82C00D4F8A41020F46000084317
:101DE000C9F82C006078000734D5D4F8A8004FEA71
:101DF0003060052807D8DFE800F00A131C0303034E
:101E0000FDB1A84626E00125002DFAD119E0D9F848
:101E1000000040F40030C9F80000002DF1D110E0BE
:101E200004F10800002102F003FA0546002DE8D174
:101E300007E004F12800002102F08AFA0546002D8F
:101E4000DFD1D9F82C00D4F8A81020F0E0600843C6
:101E5000C9F82C00E078800728D5E06C4FEA3010F4
:101E6000032806D8DFE800F002091202B5B1A8463F
:101E70001CE00125002DFAD110E0D9F8000040F453
:101E80000030C9F80000002DF1D107E004F108008E
:101E9000022102F0CDF90546002DE8D1D9F8200045
:101EA000E16C20F030000843C9F820006078C006DB
:101EB00032D5E06D4FEA3030042807D8DFE800F073
:101EC0000A131C030300FDB1A84625E00125002DDF
:101ED000FAD119E0D9F8000040F40030C9F8000048
:101EE000002DF1D110E004F10800002102F0A0F96A
:101EF0000546002DE8D107E004F12800002102F09A
:101F000027FA0546002DDFD1D9F82400E16D20F431
:101F1000E0400843C9F824006078800626D5206E8A
:101F20004FEA3040052807D8DFE800F0030A100325
:101F300003039DB1A84619E00125002DFAD10DE05B
:101F400004F10800012102F073F904E004F1280013
:101F5000012102F0FDF90546002DEBD1D9F824004E
:101F6000216E20F4E0200843C9F824006078400680
:101F700028D5D4F8AC004FEA3070052807D8DFE840
:101F800000F0030A100303039DB1A8461AE00125DF
:101F9000002DFAD10DE004F10800012102F048F90A
:101FA00004E004F12800012102F0D2F90546002DD9
:101FB000EBD1D9F82C00D4F8AC1020F0E040084365
:101FC000C9F82C006078000620D5E06ED8B1B0F1D9
:101FD000005F12D0B0F1805F25D1D9F8000040F445
:101FE0000030C9F8000085B9D9F82400E16E20F06E
:101FF00040500843C9F8240008E004F1080001211A
:1020000002F016F90546002DEED0A846E078C0078C
:102010002AD0A06C03280AD8DFE800F0020D1602CF
:10202000D5B1A84620E00125002DEED1DCE7012541
:10203000002DF6D110E0D9F8000040F40030C9F8C6
:102040000000002DEDD107E004F10800022102F0AC
:10205000EFF80546002DE4D1D9F82000A16C20F05E
:1020600003000843C9F82000A078400642D5D9F8FB
:10207000D40340F48070C9F8D403FFF745FD064649
:10208000D9F8D403C00505D4FFF73EFD801B6528B1
:10209000F6D303256DBBD9F84410D4F8B000414005
:1020A00011F4407F11D0D9F84410D9F8442042F4FB
:1020B0008032C9F84420D9F8442021F4407122F438
:1020C0008032C9F84420C9F84410B0F5807F0FD1A0
:1020D000FFF71AFD064641F2893700BFD9F84400E0
:1020E000800705D4FFF710FD801BB842F6D3032507
:1020F00085B1A8462078C00742D0A06F4FEAF00013
:10210000052823D8DFE800F003262C0303037DB362
:10211000A84635E04FF6CF73D4F8B00059F81C2C20
:10212000C0F2FF0300F4407122F47C5203EA101362
:10213000B1F5407F08BF1A436FF31F3049F81C2CDC
:10214000D9F844100843C9F84400D3E70125002D0D
:10215000DED10DE004F10800012102F069F804E08D
:1021600004F12800012102F0F3F80546002DCFD13B
:10217000D9F82800A16F20F038000843C9F82800DA
:102180002078800724D5606F052807D8DFE800F0A5
:10219000030A100303039DB1A84619E00125002D91
:1021A000FAD10DE004F10800012102F041F804E049
:1021B00004F12800012102F0CBF80546002DEBD1F7
:1021C000D9F82800616F20F007000843C9F82800FB
:1021D0002078400726D5D4F89000052807D8DFE8F6
:1021E00000F0030A100303039DB1A8461AE001257D
:1021F000002DFAD10DE004F10800012102F018F8D9
:1022000004E004F12800012102F0A2F80546002DA7
:10221000EBD1D9F82C00D4F8901020F00700084337
:10222000C9F82C002078800628D5D4F88C004FEA15
:102230003070052807D8DFE800F0030A1003030315
:102240009DB1A8461AE00125002DFAD10DE004F158
:102250000800002101F0ECFF04E004F12800022155
:1022600002F076F80546002DEBD1D9F82800D4F815
:102270008C1020F0E0400843C9F828002078400680
:1022800028D5D4F898004FEAB020052807D8DFE811
:1022900000F0030A100303039DB1A8461AE00125CC
:1022A000002DFAD10DE004F10800002101F0C0FF7B
:1022B00004E004F12800022102F04AF80546002D4E
:1022C000EBD1D9F82C00D4F8981020F4E050084352
:1022D000C9F82C002078000628D5D4F89C004FEAD5
:1022E0007030052807D8DFE800F0030A1003030365
:1022F0009DB1A8461AE00125002DFAD10DE004F1A8
:102300000800002101F094FF04E004F128000221FC
:1023100002F01EF80546002DEBD1D9F82C00D4F8B8
:102320009C1020F460400843C9F82C002078000776
:1023300016D5D4F88000B0F5805F08D104F12800EC
:10234000022102F005F8002818BF4FF00108D9F863
:102350002800D4F8801020F440500843C9F8280021
:102360002078C00616D5D4F89400B0F5807F08D147
:1023700004F12800022101F0EBFF002818BF4FF004
:102380000108D9F82C00D4F8941020F440700843C8
:10239000C9F82C00A078000722D5D4F8A000B0F529
:1023A000003F1AD0B0F5803F11D0C8BB04F108003F
:1023B000002101F03DFF05468DB9D9F82C00D4F875
:1023C000A01020F440300843C9F82C0008E004F1C4
:1023D0002800022101F0BCFF0546002DEDD0A846E3
:1023E000A078400729D5D4F88400B0F5401F21D04B
:1023F000B0F5001F18D0B0F5801F40F0BB80D9F8B1
:10240000000040F40030C9F80000ADB9D9F8280048
:10241000D4F8841020F440100843C9F828000CE0D8
:102420000125002DDBD1C8E704F12800012101F0CE
:102430008FFF0546002DE9D0A846A078C00720D020
:10244000206DB0F5803F10D0B8B9D9F8000040F445
:102450000030C9F800009DB9D9F82000216D20F4A2
:1024600080300843C9F820000BE004F10800022185
:1024700001F0DEFE05461DB9EEE70125002DEBD08B
:10248000A846E078800608D504F12800022101F072
:102490005FFF002818BF4FF00108D4E900108A033D
:1024A00077D5E26F6FF0010303EB3223022B0AD3DF
:1024B0004FEA32233BB1012B61D1D9F8003043F40C
:1024C0000033C9F80030002D5CD0CA0264D48A02FF
:1024D0006CD44A0075D4B1F1FF3F40F38380090208
:1024E00000F18B80C00707D004F10800002101F043
:1024F0009FFE002818BF05462079800707D504F104
:102500000800012101F094FE002818BF054620793B
:10251000400707D504F10800022101F089FE0028D8
:1025200018BF05462079000707D504F128000021CF
:1025300001F00EFF002818BF05462079C00607D518
:1025400004F12800012101F003FF002818BF05460F
:102550002079800607D504F12800022101F0F8FE59
:10256000002818BF0125002D18BF0125284601B0FD
:10257000BDE8F0830125002D7FF45EAF46E701251D
:10258000002DA2D1D9F8283023F440731A43C9F89A
:1025900028204546CA029AD5D9F82420236F22F074
:1025A00000421A43C9F824208A0292D5D9F824207F
:1025B000A36E22F080721A43C9F824204A007FF5E6
:1025C0008AAF59F81C2C22F4004249F81C2CD4F88C
:1025D000B42059F81C3C1A4349F81C2CB1F1FF3FB8
:1025E0003FF77DAFD9F82020636D22F040521A43A7
:1025F000C9F8202009027FF575AFD9F82810D4F862
:10260000882021F440011143C9F82810C0077FF445
:102610006BAF71E7000000002DE9F04381B00028A6
:1026200000F0F48042F200080446C5F20028894612
:10263000D8F8000000F00F0088420ED2D8F8000051
:1026400020F00F0040EA0900C8F80000D8F80000A8
:1026500000F00F00484540F0D980206844F2184748
:102660004107C5F602070AD521693A6802F07002EF
:10267000914204D93A6822F070021143396001078F
:102680000AD561697A6802F07002914204D97A68C9
:1026900022F0700211437960C1060AD5A1697A68F7
:1026A00002F4E062914204D97A6822F4E0621143B4
:1026B000796081060AD5E169BA6802F07002914238
:1026C00004D9BA6822F070021143B96081070AD5B3
:1026D000E1683A6802F00F02914204D93A6822F0A8
:1026E0000F0211433960C0077ED1206881070AD5E7
:1026F000E1683A6802F00F02914204D23A6822F08F
:102700000F0211433960D8F8001001F00F0149455C
:102710000DD9D8F8001021F00F0141EA0901C8F8DD
:102720000010D8F8001001F00F0149456ED14107A3
:102730000AD521693A6802F07002914204D23A68DF
:1027400022F070021143396001070AD561697A6885
:1027500002F07002914204D27A6822F070021143B2
:102760007960C1060AD5A1697A6802F4E0629142F3
:1027700004D27A6822F4E0621143796080060AD5B7
:10278000E069B96801F07001884204D2B96821F0AB
:1027900070010843B86000F06BF8396846F2E40253
:1027A000C0F600023B68C1F3032103F00F03515C44
:1027B000D25C01F01F01C84002F01F0140F20C0280
:1027C00020FA01F1C2F20002116040F2080140F269
:1027D0008C02C2F20001C2F2000208601068FFF72A
:1027E000DFF901B0BDE8F083386820F47061D4E906
:1027F0000102012841EA020139600BD003282BD0E5
:1028000002282ED157F8181C890307D4012001B0E3
:10281000BDE8F08357F8181CC905F7D557F8081C10
:1028200021F00701084347F8080CFFF76DF9064649
:1028300041F2883557F8080C616800F03800B0EBB9
:10284000C10F3FF452AFFFF75FF9801BA842F1D9E7
:10285000032001B0BDE8F08357F8181C8901D5D5D5
:10286000DCE757F8181C4907D0D5D7E7000000006F
:1028700044F20041C5F602010869C0F3C200032812
:102880000FD002282AD070BB0868800649F20000E9
:10289000C0F2D03058BF70470968C1F3C101C840C9
:1028A00070478A6A886AC0F3051CC86ABCF1000FC9
:1028B0004B6B1DD0C3F3CC0300F00100584302F072
:1028C0000302022A00EE100AB8EE400A12D0A2B9A2
:1028D0000868800614D49FED261A1EE043F20060BB
:1028E000C0F26E10704740F60010C0F23D00704715
:1028F000002070479FED1D1A0FE09FED1B1A0CE0A2
:10290000086849F20002C0F2D032C0F3C10022FAD6
:1029100000F001EE100AB8EE411A086B9FED153A6F
:102920006FF35F2002EE100A086BC0F34620B8EE8A
:10293000422A013000EE032A00EE10CAB7EE003A38
:10294000B8EE400A81EE000A32EE031A20EE010AC8
:1029500001EE100AB8EE411A80EE010ABCEEC00A80
:1029600010EE100A704700BF0024744A001BB74BDA
:102970000024744C000000392DE9F04381B0F8B117
:102980008046007844F20049C007C5F602095CD0D1
:10299000D9F8100000F03801D9F82800102905D026
:1029A00018290FD100F0030002280BD1D9F800003C
:1029B000800346D5D8F80400002842D1012731E031
:1029C0000127E2E2D8F804502DB1B5F5A02F0DD0C3
:1029D000B5F5803F10D0D9F8000020F48030C9F858
:1029E0000000D9F8000020F4802009E0D9F80000A8
:1029F00040F48020C9F80000D9F8000040F480308D
:102A0000C9F80000FFF780F8002D054615D000BF7B
:102A1000D9F80000800314D4FFF776F8401B64282F
:102A2000F6D903270020002800F0AF820DE000BF98
:102A3000FFF76AF8401B6428F3D8D9F80000800338
:102A4000F6D40120002800F0A08298F8000080074A
:102A50006AD5D9F8100010F03801D9F828001DD037
:102A6000182908BF5FEA807018D0D8F80C00D9F890
:102A70000010002840D021F019010843C9F80000D7
:102A8000FFF742F8054600BFD9F80000400727D4F9
:102A9000FFF73AF8401B0228F6D91EE0D9F80000EB
:102AA000400704D5D8F80C00002800F05E81D9F862
:102AB0000000D8F80C1020F019000843C9F80000F5
:102AC000FFF722F8054600BFD9F80000400707D4F9
:102AD000FFF71AF8401B0228F6D90327002420E04C
:102AE000D9F80400D8F8101020F0FE40012440EA84
:102AF0000160C9F8040014E021F00100C9F80000E9
:102B0000FFF702F805460126D9F8000010F004008E
:102B100086EA900405D0FEF7F7FF401B0328F3D3A5
:102B20000327002C00F0318298F80000C00656D52B
:102B3000D9F8100000F03801D9F82800082905D08C
:102B4000182917D100F00300012813D1D9F800008B
:102B5000C00503D5D8F81C0080283BD1D9F80C005B
:102B6000D8F8201020F07C50012440EA0160C9F818
:102B70000C0031E0D8F81C000028D9F8000012D071
:102B800040F08000C9F80000FEF7BEFF054600BF18
:102B9000D9F80000C005E1D4FEF7B6FF401B0228BB
:102BA000F6D9032717E020F08000C9F80000FEF7EF
:102BB000ABFF0546012600BFD9F8000010F4807075
:102BC00086EA102408D0FEF79FFF401B0328F3D3AA
:102BD000032701E001270024002C00F0D68198F89B
:102BE000000000071CD498F80000800631D498F843
:102BF0000000400745D4D8F82440002C00F0918014
:102C0000D9F8100000F03800182840F08C80012C12
:102C1000D9F82810D9F8300040F0A9800127B4E194
:102C2000D8F814000028D9F874003ED040F0010014
:102C3000C9F87400FEF768FF054600BFD9F87400B4
:102C40008007D0D4FEF760FF401B0228F6D9032787
:102C50009BE1D8F818000028D9F800004DD040F4C6
:102C60008050C9F80000FEF74FFF0546D9F8000074
:102C70008004BCD4FEF748FF401B0228F6D9032786
:102C800083E1D9F8000440F48070C9F80004FEF72D
:102C90003BFF0546D9F80004C0051AD4FEF734FFFF
:102CA000401B6428F6D903276FE120F00100C9F822
:102CB0007400FEF729FF0546032700BFD9F874000A
:102CC00080077FF590AFFEF71FFF401B0228F5D964
:102CD0005BE1D8F808502DB1052D00F08280012D60
:102CE00000F08580D9F8700020F00100C9F870006C
:102CF000D9F8700020F004007DE020F48050C9F87D
:102D00000000FEF701FF0546032700BFD9F80000C9
:102D100080047FF56CAFFEF7F7FE401B0228F5D963
:102D200033E1002731E1D9F8000020F08070C9F8C4
:102D30000000FEF7E9FE022C05464FF0030709D11B
:102D4000D9F80000800178D5FEF7DEFE401B02288E
:102D5000F6D91AE1D9F80000800140F1E780FEF7CA
:102D6000D3FE401B0228F5D90FE10127B6E601F09A
:102D70000302D8F828309A4240F0DA80C1F30511F6
:102D8000D8F82C20914240F0D7800146D8F8302066
:102D90006FF35F21013A914240F0D080C0F34622A8
:102DA000D8F8341001398A4240F0CA80C0F3064294
:102DB000D8F8381001398A4240F0C480C0F3066068
:102DC000D8F83C100139884240F0BE80D9F8340070
:102DD000D8F84810C0F3CC00814240F0B7800027FB
:102DE000D3E0D9F8700040F00400C9F87000D9F8B9
:102DF000700040F00100C9F87000FEF785FE002D5C
:102E0000054641F288344FF0030711D0D9F870001D
:102E100080073FF5F0AEFEF777FE401BA042F5D9E4
:102E2000B3E000BFFEF770FE401BA04200F2AD8091
:102E3000D9F870008007F5D4DDE608F12807D9F845
:102E4000280040F2F33188438ECF0843591E40EAF0
:102E500002104FF47E426FF35F21C9F8280002EBA5
:102E600047204FF4FE0280B2D8F83C300844D8F82E
:102E7000381002EB01414FF0FE4201F4FE0102EB7B
:102E80000362084402F0FE410844C9F83000D9F852
:102E90002C004FF6F87120F00100C9F82C00D9F889
:102EA0003400D8F84820884340EAC200C9F834000A
:102EB000D9F82C00D8F8401020F00C000843C9F8CD
:102EC0002C00D9F82C00D8F8441020F00200084358
:102ED000C9F82C00D9F82C0040F48030C9F82C0037
:102EE000D9F82C0040F40030C9F82C00D9F82C0097
:102EF00040F48020C9F82C00D9F82C0040F00100E3
:102F0000C9F82C00D9F8000040F08070C9F8000022
:102F1000FEF7FAFD04460327D9F80000800109D422
:102F2000FEF7F2FD001B0228F6D92EE000272CE068
:102F300001272AE0002728E0012726E0012724E0D6
:102F4000012722E0012720E001271EE0D9F82C000C
:102F500020F00100C9F82C00FEF7D6FD0546FEF76B
:102F6000D3FDA842FBD0D9F834004FF6F871D8F859
:102F700048208843002740EAC200C9F83400D9F845
:102F80002C0040F00100C9F82C00F8B201B0BDE8F7
:102F9000F0830000000000002DE9F041002800F05F
:102FA000BC80044643F60006C4F2000643F2000764
:102FB000256843F60048B542C4F20107C4F2000890
:102FC0004FF00000A06204D0454518BFBD4240F05C
:102FD000A080204601F0A8FAB54218BFBD4240F0DB
:102FE0008B80102800F2998094F8810028B9002085
:102FF00084F88000204600F093F8022084F88100D5
:103000002068D4F818E00268BEF1806F22F0010257
:10301000026087680FD162682AB1B2F5800F0AD1C9
:10302000A36B23B13AB9A26BB2F1805F03D10268FE
:1030300042F480520260636807F4F81713F4800CBE
:1030400008D0E668072E05D30668256D26F480763D
:103050002E4302E0066826F480760660E669A56ADB
:1030600047EA0607E66B47EA050747EA0607D4E999
:103070000285D4E9042145EA07058560656B43EACA
:103080000E07666A47EA0507A56B47EA060747EA9F
:10309000050742EA0702276A41EA0201E26C41EAB7
:1030A0000701A76C41EA0201A26D41EA080141EA69
:1030B000070141EA0201C1604BB98168012262F354
:1030C000CC2181608168022262F34A218160016D16
:1030D000BCF1000F21F00101016505D0C168626DEE
:1030E00021F000411143C1600020C4F88400012197
:1030F00084F88110BDE8F081454518BF08280CD838
:10310000B54218BFBD423FF46CAF45453FF469AFCF
:103110006AE7E0680F287FF65CAF0120BDE8F08128
:103120002DE9F041B6B0044602A8B8210025CDE94A
:103130003455CDE932553195FDF7EBF843F20001F6
:103140002068C4F20101884202D036B0BDE8F081A7
:103150004FF480500290199002A803954FF0020896
:10316000CDF81080282105910421CDE90611CDF874
:103170002080C021CDE909150B95FEF789FD08B126
:10318000FDF7B2FB44F2E04040F20044C5F6020015
:10319000C5F6020431AD00270169052641F48051CE
:1031A0000161016901F4805101910199016841F0C7
:1031B00008010160016801F00801019101990168AD
:1031C00041F0020101600068294600F00200019010
:1031D00001988020CDE9310804F500603596CDE9ED
:1031E0003377FEF7B9FB08202946CDE931082046A0
:1031F0003596CDE93377FEF7AFFB36B0BDE8F08109
:103200002DE9F0471D4617460E460446D0F80090BB
:10321000FEF77AFC94F8811001290BD18046012039
:10322000002E18BF002F01D1BDE8F08794F8800070
:10323000012802D10220BDE8F087012084F8800037
:10324000032184F881100021C4F88410E665A4F8F5
:103250006070A4F862706166A4F86810A4F86A103F
:10326000A2682167B2F5C02F6167216803D10868A1
:1032700040F4006203E051F80C2F60F352420A6000
:103280004FF6FF72206841689143394441600168FC
:1032900041F0010101606168B1F5800F03D101685F
:1032A00041F400710160E168102934D3B4F8620080
:1032B000002800F0AB806E1C0FE000BFE16D51F8FC
:1032C000042B0262E165B4F862000138A4F86200E0
:1032D000B4F86200002800F09980206841698907ED
:1032E000ECD4FEF711FC002EF2D0A0EB0800A842AF
:1032F000EED3204601F0BCF8D4F8840040F480708E
:10330000C4F88400012084F88100002084F8800043
:103310000320BDE8F087B4F86200072933D90028FC
:1033200074D04FF6FE706E1C471C11E0E06D3946FC
:103330000088A9F820000220E26D1044E065B4F88E
:1033400062000844A4F86200B4F8620000285DD06E
:1033500020684169890708D4FEF7D6FB002EF3D018
:10336000A0EB0800A842EFD3C3E7B4F8621002292B
:10337000DCD3E16B0029D9D0E16D0968016204203A
:103380004FF6FE71D8E7002840D04FF6FE706E1C55
:10339000A0F1020A471C10E0E16D097880F82010C6
:1033A00001203946E26D1044E065B4F8620008443B
:1033B000A4F86200B4F8620040B32068416989074C
:1033C00008D4FEF7A1FB002EF4D0A0EB0800A84221
:1033D000F0D38EE7B4F86210042908D3E16B4129D9
:1033E00005D3E16D0968016204205146DAE7B4F8BB
:1033F00062100229D0D3E16B0029CDD0E06D4FF6E9
:10340000FE710088A9F820000220CBE7204629465B
:10341000424601F095F828B1D4F8840040F020002D
:10342000C4F88400204601F023F8012084F88100CC
:10343000002084F88000D4F88400002818BF012000
:10344000BDE8F0870000000080B501F095F880BD70
:1034500070470000000000007047000000000000FE
:103460007047000000000000B0B590F83C20012A31
:103470004FF0020266D0012380F83C3080F83D20F6
:1034800040F2004C0268C4F2010C42F480636345D0
:103490005368D2F808E002BF23F470034C6823435A
:1034A0004DF6FF740D68C4F2000423F07003A242CD
:1034B00043EA0503536014DC40F2FF73C4F20003D7
:1034C0009A4222DD40F60003C4F200039A422ED055
:1034D00040F60043C4F200039A4228D041F60003AC
:1034E00021E04FF6FF73C4F200039A4213DD00237C
:1034F000C4F201039A421AD044F20003C4F2010359
:103500009A4214D0624512D016E0B2F1804F0ED02C
:1035100040F2004307E04EF20003C4F200039A4277
:1035200005D04EF20043C4F200039A4204D12EF0BB
:1035300080038968194391600022012180F83D10C1
:1035400080F83C201046B0BD60B310B5044690F83A
:103550003D0028B9002084F83C00204600F024F803
:10356000022084F83D002068211D01F0D5F80120DB
:1035700084F8480084F83E0084F83F0084F8400056
:1035800084F8410084F8420084F8430084F8440041
:1035900084F8450084F8460084F8470084F83D002C
:1035A000002010BD0120704780B582B041F20001BB
:1035B0000068C4F20001884201D002B080BD44F22C
:1035C000E8400022C5F60200016841F010010160E8
:1035D0000068012100F01000019001983620FEF7EC
:1035E0001FFB3620FEF718FB02B080BD0000000074
:1035F00090F83D10012922D1022180F83D10016888
:103600004DF6FF70C4F200008142C86840F001002E
:10361000C86016DC40F2FF70C4F20000814226DD73
:1036200040F60000C4F20000814232D040F6004073
:10363000C4F2000081422CD041F6000025E00120B8
:1036400070474FF6FF70C4F20000814215DD002084
:10365000C4F2010081421CD044F20000C4F2010017
:10366000814216D040F20040C4F201000FE0B1F1F7
:10367000804F0ED040F2004007E04EF20000C4F24E
:103680000000814205D04EF20040C4F200008142A9
:103690000BD107228868C0F2010202400020062AEE
:1036A00018BFB2F5803F00D17047086840F00100B4
:1036B0000860002070470000704700000000000014
:1036C000F0B581B004460068C768066906EA0705D8
:1036D000A90727D4680756D428076CD4E80600F158
:1036E0008280E80706D020686FF001010161204662
:1036F00000F09EF817F0800718BF16F4025006D0AD
:1037000020686FF4025101612046FFF7A5FE002FEB
:1037100018BF16F4807011D1680618D4A8061FD4FB
:1037200001B0F0BD6FF002010161012121778069D4
:1037300080071ED02046FFF7BFFF20E020686FF40F
:10374000807101612046FFF783FE6806E6D5206898
:103750006FF040010161204600F0C6F8A806DFD5F1
:1037600020686FF0200101612046FFF779FE01B06B
:10377000F0BD204600F054F8204600F055F8002037
:1037800020776807A8D520686FF004010161022145
:103790002177806910F4407F03D02046FFF78CFF2B
:1037A00005E0204600F03CF8204600F03DF80020FF
:1037B0002077280792D520686FF008010161042165
:1037C0002177C069800703D02046FFF775FF05E029
:1037D000204600F025F8204600F026F8002020774B
:1037E000E8067FF57EAF20686FF0100101610821C7
:1037F0002177C06910F4407F03D02046FFF75CFFBB
:1038000005E0204600F00CF8204600F00DF80020FE
:103810002077E8077FF467AF6CE700000000000046
:10382000704700000000000070470000000000002A
:1038300080B541F200010068C4F20001884200D066
:1038400080BD40F21000C2F20000018814291ED190
:10385000D0E9011240F22040C2F20000C0E900129B
:1038600040F22840C2F20000026001F059F801F075
:103870005BF8B7EEC00A40F238409FED191BC2F268
:10388000000020EE010BB7EEC00B80ED000A40F205
:103890003C00C2F200000188342918BF80BDD0E985
:1038A000011240F6E040C2F20000C0E9001240F60A
:1038B000E840C2F20000026001F032F801F034F892
:1038C000B7EEC00A40F6F8409FED051BC2F20000BB
:1038D00020EE010BB7EEC00B80ED000A80BD00BFEB
:1038E00085EB51B81E85DB3F7047000000000000EB
:1038F000FEE7000000000000F0B581B007462A2076
:103900001C4615460E4600F003FA07F1140080B27B
:1039100000F0EEF905F1140080B200F0E9F92B2077
:1039200000F0F6F9304600F0E3F9204600F0E0F947
:103930002C2000F0EDF901B0F0BD00000000000007
:1039400010B5144602460B46FFF7D6FF204600F09E
:10395000CFF910BD000000002DE9F04381B00E4604
:103960008146501E591E9846154682B248468BB273
:103970003146FFF7C1FF464512D2089C04E000BF64
:103980000136B0B240450BD2A945F9D24F4600BF2F
:10399000204600F0ADF90137B8B2A842F8D3EFE7FE
:1039A00001B0BDE8F083000010B540F200444FF4D0
:1039B0000061C5F6020400222046FEF79DF864204F
:1039C000FDF706FA4FF4006101222046FEF794F855
:1039D0006420FDF7FDF94FF4806101222046FEF7D7
:1039E0008BF86420FDF7F4F9112000F091F97820AC
:1039F000FDF7EEF9362000F08BF9702000F084F925
:103A00003A2000F085F9052000F07EF9B22000F0A0
:103A10007FF90C2000F078F90C2000F075F90020F7
:103A200000F072F9332000F06FF9332000F06CF9E8
:103A3000B72000F06DF9352000F066F9BB2000F0EA
:103A400067F9322000F060F9C22000F061F901202E
:103A500000F05AF9C32000F05BF9152000F054F98A
:103A6000C42000F055F9202000F04EF9C62000F0E7
:103A70004FF90F2000F048F9D02000F049F9A420B8
:103A800000F042F9A12000F03FF9E02000F040F9F9
:103A9000D02000F039F9082000F036F90E2000F0AF
:103AA00033F9092000F030F9092000F02DF9052044
:103AB00000F02AF9312000F027F9332000F024F932
:103AC000482000F021F9172000F01EF9142000F022
:103AD0001BF9152000F018F9312000F015F93420F9
:103AE00000F012F9E12000F013F9D02000F00CF9F9
:103AF000082000F009F90E2000F006F9092000F076
:103B000003F9092000F000F9152000F0FDF831203C
:103B100000F0FAF8332000F0F7F8482000F0F4F84D
:103B2000172000F0F1F8142000F0EEF8152000F056
:103B3000EBF8312000F0E8F8342000F0E5F821201F
:103B400000F0E6F8292000F0E3F810BD00000000C6
:103B50002DE9F04F87B0DDF844804FF0010C4FEABB
:103B6000580792464FEA1815814600EB580001EBC2
:103B700008027C071C4618BF0CEB18150138531EB1
:103B800082B248469BB205FB08F60D460691FFF748
:103B9000B3FE002E049600F08180A8F10C00AAF17B
:103BA0002002C1B28001D2B2129D40EA91010020F0
:103BB000CBB246F26851C0F60001029201EB02114D
:103BC000019147F628514E46C0F600014FF0000A19
:103BD00001EB821100220091039308E04FF0000AEC
:103BE000059A04990132039B90B2814256D9052B64
:103BF00054D80592DFE803F0030E5210521A0299CE
:103C000046F2F402C0F6000201EB410102EB810131
:103C10000DE000BF01990AE0029946F65832C0F65D
:103C2000000201EB410102EB011100E000990844A0
:103C30004FF0000890F800B017E000BF10EA0B0F3B
:103C40002046109908BF084600F052F80AF1010A10
:103C50005FFA8AF0B0FBF7F101FB17000028BDD036
:103C600008F10108B8F1080FBAD00120002D00FAC0
:103C700008F0E3D010EA0B0F05D0B0B2069989B274
:103C80002246FFF75DFE0136B0B2A0EB0900B84254
:103C9000E6D106984E4601300690A1E707B0BDE890
:103CA000F08F0000000000002DE9F04F83B017787E
:103CB000CFB1DDE90C9A9B460D4606464FEA5A0401
:103CC000A2F10108B0B20E99FAB2029129465B4600
:103CD000CDE9009AFFF73CFF98F80270264408F1FE
:103CE0000108002FEED103B0BDE8F08F0000000006
:103CF00010B50446000A00F023F8E0B200F020F806
:103D000010BD00000000000080B500F019F880BD73
:103D1000B0B540F600450446C5F602054FF4806193
:103D200000222846FDF7E8FE204600F009F84FF48F
:103D3000806101222846FDF7DFFEB0BD00000000D3
:103D400010B582B041F200048DF80700C5F60204F8
:103D50004FF4004100222046FDF7CEFE40F2AC2099
:103D60000DF10701C2F2000001224FF6FF73FFF7C9
:103D700047FA4FF4004101222046FDF7BDFE02B094
:103D800010BD000000000000B0B55FFA80FCBCF17F
:103D9000070F04D8C0F3072EBEF10F0F01D9012081
:103DA000B0BD40F23C4420F47F40C2F2000440EA3F
:103DB0000E2004EB0C244FEA0E1C04EB0E1544F805
:103DC0000C00281D0EC00020B0BD00000000000047
:103DD00080B582B0072898BF0F2901D902B080BDF5
:103DE00040F23C43C2F2000303EB002303EB011358
:103DF000D3F808C0BCF1000FF0D04901002307310F
:103E0000CDE90033C9B28DF800206A460823E047A7
:103E100002B080BD0000000080B582B0072898BFC6
:103E20000F2901D902B080BD40F23C4CC2F2000C17
:103E30000CEB002C0CEB011CDCF808C0BCF1000FF3
:103E4000F0D049014FF0000E0B31CDE900EEC9B2C0
:103E50008DF800208DF804306A460823E04702B050
:103E600080BD00000000000080B582B0072898BF28
:103E70000F2901D902B080BD40F23C42C2F20002DB
:103E800002EB002202EB0112D2F808C0BCF1000FD5
:103E9000F0D0490100220E310192C9B26A460823CE
:103EA0008DED000AE04702B080BD00000000000078
:103EB00080B540F294004AF20001C2F20000C4F260
:103EC000000101224FF00F0C01600021C0E9021136
:103ED000018204238274C0E90522C0F81CC0C0E935
:103EE0000832C0E90A2CC0E90C31C0E90E212022B9
:103EF0008366C0E91023C0E91213C0E91413C0E9B6
:103F00001611C0E91821FDF7C7FA002808BF80BDC7
:103F1000FCF7EAFC80BD000080B540F2A0104AF238
:103F20000041C2F20000012200F12803C4F20001A6
:103F300001600021C0E9021101824FF00F0C827470
:103F40004FF0040EC0E90522C0F81CC0C0E908E229
:103F500083E8045040F20643C0F844E0C0E90D3263
:103F6000C0E90F112022C0F868E0C0E9122EC0E9B4
:103F7000141EC0E91611C0E91821FDF78DFA0028BA
:103F800008BF80BDFCF7B0FC80BD00000000000051
:103F90002DE9F04F87B044F2E0400025C5F602005D
:103FA0000695CDE90455CDE90255016840F2004877
:103FB00041F0100101600168C5F6020801F010012E
:103FC00001910199016841F004010160016808F55F
:103FD000806401F0040101910199016841F08001C0
:103FE00001600168012201F08001019101990168DD
:103FF00041F00101016001684FF0010A01F0010187
:1040000001910199016841F002010160016801F02C
:10401000020101910199016841F008010160006805
:104020004FF4604100F00800019001982046FDF730
:1040300063FD08F540664FF4004100223046FDF76D
:104040005BFD4FF4406100224046FDF755FD08F549
:1040500000694FF4806100224846FDF74DFD02AF34
:1040600047F6FF700290304639464FF0030BCDE91A
:1040700003B5FDF771FC4FF460403946CDE9020A03
:104080002046CDE904A5FDF767FC41F6FF703946EF
:10409000CDE9020B20460495FDF75EFC49F6FF7062
:1040A0003946CDE9020BA8F580600495FDF754FC74
:1040B0004FF297303946CDE9020B40460495FDF7A3
:1040C0004BFC4FF400403946CDE9020A3046CDE9B9
:1040D0000455FDF741FC4FF440603946CDE9020A32
:1040E0004046CDE90455FDF737FC4FF67C303946A4
:1040F000CDE9020B48460495FDF72EFC4FF4806095
:104100003946CDE9020A4846CDE90455FDF724FCBD
:1041100007B0BDE8F08F000010B540F2AC2443F2C8
:104120000000C2F20004C4F201004FF08061206080
:104130004FF4800060604FF40030A0600720E06022
:104140004FF00070206100206061A1614FF080514C
:10415000C4E90710C4E90900E0624FF080406063E1
:1041600004F138002421FCF7D4F82046FEF714FFB0
:10417000002808BF10BDFCF7B7FB10BD0000000011
:1041800010B584B040F2343041F20001C2F20000B8
:1041900000240394C4F20001CDE90144016045F616
:1041A000C051C0E901144FF4FA61C16080218161FE
:1041B000FFF7CAF908B1FCF797FB40F2343001A9C8
:1041C000C2F2000001940394FFF74EF908B1FCF726
:1041D0008BFB40F23430C2F20000FFF709FA04B062
:1041E00010BD000000000000FEE70000000000001D
:1041F000FEE700000000000000F007004FF0FF3C69
:1042000080F00703042B28BF0423033838BF0020A5
:104210000CFA03F399430CFA00F301FA00F022EAD6
:1042200003010843704700007047000000000000D1
:10423000F0B581B044F22C47C5F6020757F8042CBC
:1042400002F00302032A02D1012001B0F0BD0546AD
:1042500057F82C0C0C4620F0806047F82C0CFDF72A
:1042600053FC064657F82C0C000105D5FDF74CFC15
:10427000801B0228F6D964E057F8040CEE6895E834
:104280000E0020F47C30012C40EA0130A2F1010143
:104290006FF35F214FF47E4202EB432247F8040C98
:1042A00092B24FF0FE4302EB01004FF4FE012A6987
:1042B00001EB064101F4FE0103EB0262084402F047
:1042C000FE410844F8603868696920F0C00040EA9F
:1042D000010038603868A96920F0200040EA010038
:1042E000386038684FF6F87120F01000386038698F
:1042F000EA6920EA01004FF4001140EAC200386187
:10430000386808BF4FF4801140F01000002C38606E
:1043100008BF4FF4002138680843386057F82C0C68
:1043200040F0806047F82C0CFDF7EEFB044600BF20
:1043300057F82C0C000107D4FDF7E6FB001B0328FF
:10434000F6D3032001B0F0BD002001B0F0BD0000A5
:10435000F0B581B044F22C47C5F6020757F8042C9B
:1043600002F00302032A02D1012001B0F0BD05468C
:1043700057F82C0C0C4620F0805047F82C0CFDF719
:10438000C3FB064657F82C0C800005D5FDF7BCFB97
:10439000801B0228F6D964E057F8040CEE6895E813
:1043A0000E0020F07C70012C40EA0150A2F10101C6
:1043B0006FF35F214FF47E4202EB432247F8040C77
:1043C00092B24FF0FE4302EB01004FF4FE012A6966
:1043D00001EB064101F4FE0103EB0262084402F026
:1043E000FE41084478613868696920F4406040EA19
:1043F000010038603868A96920F4007040EA0100C3
:10440000386038684FF6F87120F480703860B86909
:10441000EA6920EA01004FF0807140EAC200B86109
:10442000386808BF4FF4000140F48070002C3860F9
:1044300008BF4FF4800138680843386057F82C0CE7
:1044400040F0805047F82C0CFDF75EFB044600BF9F
:1044500057F82C0C800007D4FDF756FB001B0328EF
:10446000F6D3032001B0F0BD002001B0F0BD000084
:10447000016840F26F32D1F814C08B6943F0080331
:104480008B618B6943F010038B610B6823F0010390
:104490000B600B6923EA02020A618A6822F4404237
:1044A0008A6090F881305FEA8C620BD5042B09D0CA
:1044B000D0F8842042F08002C0F884208A6942F05B
:1044C00020028A6190F881305FEA4C620BD5032BA1
:1044D00009D0D0F8842042F00402C0F884208A6910
:1044E00042F040028A615FEA8C5209D5D0F88420FC
:1044F00042F00102C0F884208A6942F400728A61A5
:104500005FEACC5209D5D0F8842042F00802C0F806
:1045100084208A6942F480728A610021A0F86210C6
:10452000A0F86A1070470000C16B0122C068083013
:1045300002EB5111C0084843704700000000000022
:10454000F0B581B014460D4606464F1C30684069F0
:10455000000709D4FDF7D8FA002FF7D0001BA842B6
:10456000F4D3032001B0F0BD002001B0F0BD000085
:104570007047000000000000B0B501380024B4EB23
:10458000106F01D00120B0BD4EF210050F21CEF208
:10459000000568604FF0FF3000F08EF9AC60072036
:1045A00028602046B0BD000080B5FDF7B5FA80BD9B
:1045B000B0B59CB044F6180409A84C21C5F6020415
:1045C000FBF7A7FE02200025CDE90755CDE90555EB
:1045D000CDE90355CDE90155FDF736FB009520687F
:1045E00020F440402060206800F440400090009893
:1045F00020688004FCD5012009904FF480310A9195
:1046000002212822CDE9152018201491CDE91701A7
:104610000C20199009A80024CDE91211CDE91A4403
:10462000FEF7AAF9A8B93F20019003204FF480615A
:10463000CDE90204082004904020CDE90500CDE931
:10464000071001A80321FDF7E7FF002804BF1CB0F5
:10465000B0BDFCF749F900004EF6885042F2000C5C
:10466000CEF20000C5F2002C026842F47002026033
:10467000DCF8000000F00F00062806D8DCF8000087
:10468000072262F30300CCF8000044F200404EF62B
:104690007F51C5F60200CEF6F621026842F0010213
:1046A000026000220261036819400160DCF800101A
:1046B000090706D5DCF80010072363F30301CCF8E3
:1046C000001040F200218261C261C0F20221026248
:1046D00081620021C0F2FF11C16240F28021C0F26C
:1046E0000111016342638163C26301644264016832
:1046F00021F480210160026644F20000C5F200202E
:1047000043F2D2010160704780B540F23430C2F20A
:104710000000FEF7D5FF80BD10B540F6FF32C4F2B1
:104720000002904202680FDCB0F1804F1DD040F2D1
:104730000043C4F20003984217D040F60003C4F2CD
:104740000003984211D014E040F60043C4F2000385
:1047500098420AD040F20043C4F20103984204D0C8
:104760000023C4F20103984203D122F070024B6887
:104770001A434EF2FF3343F6FF7CC4F20003C4F247
:10478000010C98420FDD604522DC4EF20043C4F27A
:104790000003984238D00023C4F20103984233D07A
:1047A00040F2004322E040F2FF73C4F2000398425B
:1047B00021DD40F60003C4F20003984224D040F605
:1047C0000043C4F2000398421ED04EF2000317E0EB
:1047D00044F20003C4F20103984215D044F60003EA
:1047E000C4F2010398420FD044F20043C4F2010323
:1047F000984209D00CE0B0F1804F05D040F2004360
:10480000C4F20003984203D122F44072CB681A43E9
:1048100022F080024C696045D1F800E08B6842EAE2
:1048200004020260C362C0F828E00EDD44F2000218
:10483000C4F20102904213D044F60002C4F2010215
:1048400090420DD044F2004206E00022C4F2010280
:10485000904205D040F20042C4F20102904201D1E0
:1048600009690163012141610169C90708BF10BDE0
:10487000016921F00101016110BD0000000000008C
:10488000FEE7000000000000002848BF704700F06D
:104890001F01012202FA01F14EF200124009CEF28C
:1048A000000242F8201070474EF60C50CEF2000085
:1048B0000068C0F3022070474EF6145300F00F0258
:1048C000CEF20003B0F1FF3F1A4400F16043C8BFCD
:1048D00003F56442080110707047000000000000FA
:1048E0004EF60C514FF6FF03CEF200010A681A4053
:1048F00060F30A2242F0806040F0FD70086070476B
:1049000080B5B7EEC00A03A153EC102B00F0E0F91C
:1049100080BD00BF252E32660000000000000000B0
:10492000006870470000000070B52DED068BB7EEF3
:10493000008A044600259FED1BAA00BFB0EE480A7E
:1049400024FA05F000F00106A5F1170000F0CCFAFA
:1049500001EE106A0135172DB8EEC11A00EE01AA5A
:10496000ECD1C4F3C7509FED101A00EE100AE00F0F
:10497000B8EE400A30EE019A00EE100AF8EE400A56
:10498000BFEE000A00F0F8FA3AEE081A21EE008AAB
:10499000B0EE490A00F0C4F928EE000ABDEC068B1F
:1049A00070BD00BF000000000000FEC2000000005B
:1049B0007047000000000000012818BF704780B554
:1049C00040F29400C2F20000FBF762FFBDE88040B5
:1049D000704700000000000084B04EF61450CEF284
:1049E00000000168890312D4BFF34F8FBFF36F8FAC
:1049F0000021C0F83C12BFF34F8FBFF36F8F0168E7
:104A000041F400310160BFF34F8FBFF36F8F016836
:104A1000C90327D400210167BFF34F8FC16E43F64E
:104A2000E07CC1F3C903C1F34E325C1C9D0700BF9B
:104A30000CEA42162B46214643EA0607013903F1E8
:104A40004043C0F84C72F7D1002AA2F10102EFD125
:104A5000BFF34F8F016841F480310160BFF34F8F86
:104A6000BFF36F8FFDF768F8FFF7A2FDFFF790FA2D
:104A7000FFF71EFAFFF750FAFFF74EFBFFF780FB38
:104A8000FEF792FF002000214FF48C72F0230026E5
:104A90000096FEF761FF40F21004C2F20004E069E4
:104AA000804740F23C05C2F20005E8698047A069F2
:104AB0008047A8698047206A8047286A804740F27B
:104AC0006803C2F200030FCBFFF75EF96420FCF726
:104AD0007FF940F27803C2F200030FCBFFF754F9DD
:104AE0006420FCF775F90120002101220123FFF762
:104AF00093F96420FCF76CF90120012101220123C4
:104B0000FFF78AF96420FCF763F9012000210822ED
:104B1000FFF75EF96420FCF75BF901200121082210
:104B2000FFF756F96420FCF753F9B7EE008A01202D
:104B30000021B0EE480AFFF797F96420FCF748F926
:104B4000B0EE480A01200121FFF78EF96420FCF73E
:104B50003FF940F2384940F22C4440F6F84A40F61A
:104B6000EC45C2F20009C2F20004C2F2000AC2F22D
:104B7000000518270FF26C080FF2780B99ED000A68
:104B80002046FFF7BDFE9AED000A2846FFF7B8FE63
:104B9000142048214FF607434246CDE900670296AC
:104BA000FFF782F8C82048214FF607432246CDE997
:104BB00000670296FFF778F8142066214FF6074346
:104BC0005A46CDE900670296FFF76EF8C8206621C5
:104BD0004FF607432A46CDE900670296FFF764F8CF
:104BE000CCE700BF4C65667420546F727175653AEE
:104BF00020000000526967687420546F72717565F7
:104C00003A20000000000000704700000000000093
:104C1000012818BF704780B540F2A010C2F2000012
:104C2000FBF736FEBDE88040704700000000000042
:104C300040F21002C2F20002914203D10368D3F89D
:104C4000A430136140F23C02C2F20002914203D14F
:104C50000068D0F8B40010610869C0F3042008753A
:104C60000869C0F304408875086900F03F00487582
:104C7000704700000000000070B50C46054649F280
:104C8000F8402946C0F60000224600F011F8002C3A
:104C900008BF70BD49F2F846C0F600063046294606
:104CA000224600F005F84FF49670FCF791F8F5E70E
:104CB0000FB4054B10B503A9044A029800F08EFD0D
:104CC00010BC5DF814FB0000155F00080000002018
:104CD0000FB4084B10B504A902AA039800F07EFD9A
:104CE000044602A9002001F010F9204610BC5DF82E
:104CF00014FB00000B5F00084100080218BF0420ED
:104D00000A0E18BF40F001004FF07F4232EA010165
:104D100008BF40F00200012808BF052070470000CE
:104D200010B510EE104A4FF019406349002200EB15
:104D300044002DED028B884254D800BFF1EE000AEA
:104D400014F0004F60EE200A14BFBEEE001AB6EE5B
:104D5000001A71EE200AB5EE001AFDEEE00A10EE20
:104D6000900A00EE900AF8EEE00A00EEC10A9FED0C
:104D7000531ADFED530A40EE010A9FED521A00EE7E
:104D8000201ADFED510A514B00F0030140EE010AF9
:104D900020EE800A7B4403EB8103D3ED000A4C4BE9
:104DA0007B4403EB810393ED001A4A4B41EE000A6A
:104DB0007B4403EB8101801091ED000A70EE801AB4
:104DC0009FED451A9FED450AEABB00EE900ABDEC47
:104DD000028BF8EEE00A00EE810ABCEEC00A20EE7B
:104DE000210A10BD4FF0FF40A0431BD04FF0CE4032
:104DF000B0EB440F82BFB7EE000ABDEC028B10BDD2
:104E00003748B0EB440F28BF012297D2022000F0B0
:104E10001DFC14F0004F13D0BDEC028BBDE8104018
:104E200000F0FCBB14F5000F02BF9FED2E0ABDEC95
:104E3000028B10BDBDEC028BBDE8104000F0D8BB6A
:104E4000BDEC028B00E003E0BDE8104000F0DEBBEB
:104E500000EBD0714A1000EE902AA0EB6100B8EE92
:104E6000E02AF0EE400A42EE010AFCEEE00A60EEB3
:104E7000A10A01EE900AF8EEE11A01EE810ABCEEF9
:104E8000C00A20EE208A18EE100A002819BF18EE7A
:104E9000100AB0F1FF4F022000F0D8FB18EE100A04
:104EA000FFF72AFF042808BF00F0B8FBB0EE480A5D
:104EB000BDEC028B10BD00000000F01E81A41D3C63
:104EC000206E633DEFFD753E1772313FA01100006B
:104ED000A4110000741100000000004B00007E4E81
:104EE00000002C860000000010EE102A6FEAD2525B
:104EF00012F0FF0F1ABFB5EEC00AF1EE10FA7047BC
:104F000010B501462DED028B10EE100AFBF753FA97
:104F100008EE100A18EE100A6FEAD05010F0FF0FDA
:104F200019D0B5EEC08AF1EE10FA1EBFB0EE480AF5
:104F3000BDEC028B10BD022000F088FB00F06EFB80
:104F400010EE101A18EE100ABDEC028B61F31E0071
:104F500000EE100A10BD022000F078FB00F056FBB6
:104F600010EE101A18EE100ABDEC028B61F31E0051
:104F700000EE100A10BD000010B510EE100A2DED65
:104F8000068BB7EE001A10EE901AB0EE418A00229E
:104F9000A0F5000CDFEDFE9A4FF00073BCF1FE4F60
:104FA0004FF07F4403EB410C80F0B481BCF1804FA3
:104FB000C0F02082F74901449FEDF73AB1F5005F58
:104FC00040F2D48200F58021CB0C03F00F0101EEFA
:104FD000901AC3F307137F3BA0EBC350B8EEE12A4E
:104FE00000EE100A1A44DFEDED2AF0EE411A42EE0F
:104FF000221AF0EE613A70EE232A30EE632A12EEA6
:10500000900A00F500606FF30B0001EE900A73EE5A
:10501000E13A33EE804AC1EE223A22EE230A10EE44
:10502000100A00F500606FF30B0000EE100A00EEAE
:10503000612A00EE442A62EE232A70EE221A21EE43
:10504000A12ADFEDD73A02EE233A23EE023A20EE10
:10505000012A22EE811A03EE211A32EE010A10EE25
:10506000100A00F500606FF30B0000EE100A72EEFC
:10507000401A31EE812A9FEDCB1A60EE011A9FEDA6
:10508000CA1A20EE011A9FEDC90A02EE001A31EE8B
:10509000810A10EE100A00F500606FF30B0000EEBD
:1050A000100AC34871EEC01A31EE812A784400EB31
:1050B000C10090ED003AD0ED011A100101EE100A86
:1050C000F8EEC12A32EE211A31EE001A31EE031A3F
:1050D00031EE221A11EE100A00F500606FF30B009A
:1050E00009EE100A39EE621A31EE431A31EE400A27
:1050F00030EE610A32EE40AA10EE900A002100F56F
:1051000000606FF30B0008EE900A084670EEE8AA04
:10511000FBF716FB29EE280A00F00C01F0EEC00A9E
:1051200010EE900AB0F18B4F0DDD10EE900AB4EB4B
:10513000400F08D310EE100A4FF08B4262F31E00AE
:1051400008EE900A13E069EE2A0A38EEAA1A4AEE2F
:10515000010A30EE201A11EE100A00F500606FF31C
:105160000B0008EE900A30EE680A70EE209A0C20D0
:10517000FBF7E6FA38EEA90AB5EEC00AF1EE10FA2E
:1051800034BFFEEE000AF6EE000A30EE800ABDEEF5
:10519000C00A10EE100A011100EE101AF8EEC00A53
:1051A00000EE100AB8EEC00A38EEC00A30EE290A46
:1051B000DFED801A9FED801A00EE211ADFED7F1AD5
:1051C0007F4900F00F0040EE011A21EE800A794479
:1051D00001EB800191ED001A7A49794401EB8001DD
:1051E000D1ED001A784901EE801A794401EB800074
:1051F000764990ED000A31EE001AB0EEE00A10EEAA
:10520000100A884215DA10EE100AB4EB400F10D3E2
:105210009FED6F0A30EE800ADFED6E0A20EE200A65
:1052200068EE010ABDEC068BBCEEC00A20EE200A37
:1052300010BD10EE100A6849884243DA10EE100AD9
:10524000B4EB400F3ED3BDEEE00A68EE010A10EE6B
:10525000100A00EBD0725110C90501F17E5100EE29
:10526000101AA0EB6200C00560EE200A00F17E502B
:1052700000EE100A60EE808A18EE900AB4EB400F40
:105280000FD1022000F0E2F900F0C0F910EE101A80
:1052900018EE100ABDEC068B61F31E0000EE100A3A
:1052A00010BD18EE900A400011D018EE900AFFF7DA
:1052B00023FD042808BF00F0B1F9B0EE680ABDEC88
:1052C000068B10BDF5EEC00AF1EE10FA0FD20220E7
:1052D00000F0BCF900F0A2F910EE101A18EE100A56
:1052E000BDEC068B61F31E0000EE100A10BD02201B
:1052F00000F0ACF900F08AF910EE101AB0EE480A8E
:1053000010EE100ABDEC068B61F31E0000EE100AD1
:1053100010BD00BFBCF1804F6CD300BF00F1FF4354
:10532000B3F1FE4F24D200BFB0EEC00A10EE100A57
:10533000C1F3C7537F2B0DDB972BBFF63BAEC3F1F9
:1053400096034FF0010C0CFA03F3A3F1010C1CEAD5
:10535000010F08D0012000F079F9BDEC068BBDE803
:10536000104000F04BB90B4218BFBFEE008A21E697
:1053700043001CBF4FF08073B3EB400F34D96FF084
:105380001A02DFED161A20EE210A10EE100A27E0AD
:1053900000000000001080C0ABAAAA3E0000803DC3
:1053A0007EE24C3E00B03842D49AB8BB3BAA3842A9
:1053B000A80E0000FC596337C9FF753A1872313DD9
:1053C000460E00007A0E0000EA0D00000000FC42CC
:1053D0000000FE420000004B000040430000004D72
:1053E00010F0004FA0D1E5E5A0F50003B3F1FE4FAA
:1053F00021D2DFE503EB4103B3F1007F11D3F5EEDA
:10540000C00AF1EE10FA05D1430018BFB4EB400F0B
:1054100076D883E701F0004141F0FC5100EE901A8C
:105420007CE7B3F1807F06D210EE903AA3F500033B
:1054300000EE903A72E720F000426FF0FF4C604CB3
:1054400002EB0C03A34210D321F000439C44A4457B
:105450000BD3B0F17E5F18BF5FEA410C50D0B2F1C0
:10546000FF4F98BFB3F1FF4F05D9BDEC068BBDE8E8
:10547000104000F0C0B8B0F1FF4F0FD0C1F3C752D9
:105480007F2A09DB972A11DAC2F19602012303FA77
:1054900002F2531E0B4205D0002208E011F0004F2B
:1054A00055D128E00A4218BF012200D1022210F58E
:1054B000000F13D028B3B0F1004F26D010F1814F68
:1054C0004FD04FF0FE42B2EB400F94BF01200020BE
:1054D000012202EBE171884239D10CE011F0004F5A
:1054E00002D0012A38D032E0012A02BF9FED350AEE
:1054F000BDEC068B10BD9FED340ABDEC068B10BDD4
:105500002FE011F0004F0CD121E0B1F1FF4F1ED080
:1055100011F5000F05D011F0004F15D00AB1012A86
:1055200008D0022000F092F8BDEC068BBDE81040D8
:1055300000F054B8022000F089F800F04FF8BDECFC
:10554000068BB1EE400A10BD0AB1012A04D0B0EEBC
:10555000690ABDEC068B10BDBDEC068B9FED1B0AE6
:1055600010BDBDEC068BB7EE000A10BD30EE410A4F
:10557000B5EE001A9FED172A00EE413AB6EE001A7A
:1055800060EE001A00EE431A61EEC11A9FED101A88
:1055900020EE011A20EE020A9FED0F2A01EE820A88
:1055A00071EE001A11EE900A00F500606FF30B0027
:1055B00009EE100A31EE491A31EE00AA9CE500000E
:1055C000FFFF3F00000080FF0000807F00000080A0
:1055D00000B0B841D49A38BB3BAAB841DFED030A0A
:1055E000B7EE001A81EE200A7047000000000000AC
:1055F00030EE000A704730EE200A7047DFED020AF5
:1056000080EEA00A70470000000000009FED020A33
:1056100020EE000A70470000000000709FED020AB3
:1056200020EE000A704700000000001002E008C8E9
:10563000121F08C1002AFAD170477047002001E00C
:1056400001C1121F002AFBD1704700000149086008
:1056500070470000040000202DE9FF5F82B00021A8
:10566000DDE90430020DDDF840B0034318D044F604
:105670001050A2F2FF3242431514119801281FD096
:10568000A5EB0B00401C5FEA000A4FF000064E4FEE
:10569000DFF83891B046504615D5CAF1000413E042
:1056A000119801244AA3012801D16FEA0B01029845
:1056B000119AC0E90031C0E9024206B0BDE8F09F8E
:1056C000CBF10000DFE704460021404A491842EBD5
:1056D0000450CDE9001012E0E00707D032463B4607
:1056E00040464946FAF71AFF8046894632463B460D
:1056F00010461946FAF712FF06460F466410002CB2
:10570000EAD1DDE90401DDE90023BAF1000F06DA90
:10571000FAF704FF42464B46FAF700FF05E0FAF7B6
:105720006FFF42464B46FAF76BFF04460E460022D7
:10573000284BFAF7EDFF03D84FF0FF30014607E0A2
:105740000022254B20463146FAF741FEFAF7C7FF03
:10575000102409E0002C0ADB0A220023FAF7FAFDE4
:10576000039B30321A55641E50EA0102F2D1641CC8
:10577000039AC4F111031444119A012A03D001229F
:1057800008430DD10AE0084304D000204FF0110B6C
:10579000119072E7A3EB0B056D1E0DE05B4504DD78
:1057A0004FF0000205F1010504E003DA4FF00002BA
:1057B000A5F10105002AECD002981199C0E9023147
:1057C000C0E9004579E70000000014400000F03F08
:1057D000300000000000F0430000E03F2DE9FF4FE3
:1057E00095B09B468946064600250FE2252877D1CD
:1057F00000242746F84A0121059400E0044316F8E6
:10580000013F203B01FA03F01042F7D130782A28FB
:1058100011D06FF02F033078A0F13002092A16D88A
:10582000059A44F0020402EB820203EB42021044A8
:10583000761C0590EFE759F8042B0592002A03DA4D
:10584000504244F40054059044F00204761C307831
:105850002E2816D116F8010F44F004042A280DD082
:105860006FF02F023078A0F13003092B09D807EB35
:10587000870302EB4303C718761CF3E759F8047B50
:10588000761C30786C280FD006DC4C2817D068289E
:105890000DD06A2814D104E0742810D07A280FD1D2
:1058A0000DE044F400140AE044F4801401E044F4F0
:1058B00040147278824202D104F58014761C761C62
:1058C000307866280BD013DC582877D009DC002804
:1058D00075D04528F6D04628F4D047281AD19DE146
:1058E00018E0632835D0642879D0652812D195E175
:1058F000702873D008DC6728F1D069286FD06E2833
:105900000DD06F2806D1B5E073282CD0752875D03E
:10591000782874D05A46179990476D1C75E1C4F3E6
:105920000250022809D003280DD0D9F8001004280D
:105930000DD00D6009F1040967E1D9F80010EA17EC
:10594000C1E90052F6E7D9F800100D80F2E70D70BA
:10595000F0E719F8041B8DF8001000208DF8010005
:10596000EA46012003E059F804AB4FF0FF3061072D
:105970004FF0000102D40DE008F101018846B94260
:105980000FDA8045F8DB1AF808100029F4D108E096
:1059900008F1010188468142FADB1AF80810002953
:1059A000F6D105985B46A0EB080721463846179AC2
:1059B00000F094FA284400EB080507E04DE029E1E7
:1059C0000DE01AF8010B5A4617999047B8F10108F3
:1059D000F7D25B4621463846179A13E142E00A2285
:1059E0000092C4F302524FF0000A022A08D059F87C
:1059F00004CB032A4FEAEC710AD00DE029E02AE03B
:105A000009F1070121F00702F2E802C1914609E01D
:105A10000FFA8CFC4FEAEC71042A03D14FFA8CFC8C
:105A20004FEAEC71002907DA0A460021DCF1000C8C
:105A300061EB02012D2202E0220504D52B228DF814
:105A40000420012203E0E20701D02022F7E790467C
:105A500059E00A2102E010220DE010214FF0000A67
:105A600000910BE010224FF0000A44F004040827D4
:105A7000009203E008224FF0000A0092C4F30252A1
:105A8000022A05D059F804CB0021032A08D009E0E6
:105A900009F1070121F00702F2E802C1914605E091
:105AA0001FFA8CFC042A01D10CF0FF0C4FF0000807
:105AB000220728D5702806D0009B83F0100353EAF4
:105AC0000A0305D00EE040228DF80420012208E0F0
:105AD0005CEA010206D030228DF804208DF8050022
